:020000040800F2
:100000000000022031030008ED020008EF020008A2
:10001000F1020008F3020008F502000800000000E9
:10002000000000000000000000000000F7020008CF
:10003000F902000800000000FB020008FD020008B1
:100040008103000881030008810300088103000880
:100050008103000881030008810300088103000870
:100060008103000881030008810300088103000860
:100070008103000881030008810300088103000850
:100080008103000881030008810300088103000840
:100090008103000881030008810300088103000830
:1000A0008103000881030008810300088103000820
:1000B0008103000881030008810300088103000810
:1000C0008103000881030008810300088103000800
:1000D00081030008810300088103000881030008F0
:1000E00081030008810300088103000881030008E0
:1000F00081030008810300088103000881030008D0
:1001000081030008810300088103000881030008BF
:1001100081030008810300088103000881030008AF
:10012000810300088103000881030008810300089F
:1001300081030008000000000000000081030008A7
:10014000810300088103000881030008810300087F
:10015000810300088103000881030008810300086F
:10016000810300088103000881030008810300085F
:1001700081030008810300088103000800000000DB
:1001800000000000810300080000000000000000E3
:100190008103000800000000000000008103000847
:1001A00000000000000000000000000081030008C3
:1001B000810300088103000881030008810300080F
:0401C00081030008AF
:1001C4000348044B834202D0034B03B118477047E2
:1001D4001000002010000020000000000548064B1D
:1001E4001B1AD90F01EBA301491002D0034B03B131
:1001F4001847704710000020100000200000000085
:1002040010B5064C237843B9FFF7DAFF044B13B15A
:100214000448AFF300800123237010BD10000020B8
:10022400000000004C08000808B5054B1BB1054947
:100234000548AFF30080BDE80840FFF7CFBF00BF1B
:1002440000000000140000204C080008014BD3E912
:10025400000170473000002008B54FF4C06000F082
:10026400DCF8024800F00AFA08BD00BF6408000880
:1002740008B5202300220121014800F0AEF808BD92
:100284000000024008B505494FF47A7000F072FA94
:1002940000F093FA00F08AFA08BD00BF00BD010522
:1002A40000B583B0FFF7D8FFFFF7E2FFFFF7EAFFDF
:1002B400FFF7CCFFCDE90001FFF7C8FFDDE900231C
:1002C400801A61EB0301B0F57A7F71F10001F3D379
:1002D4002021044800F078F8FFF7B8FFCDE90001C9
:1002E400EAE700BF00000240FEE7FEE7FEE7FEE7A4
:1002F400FEE770477047704708B500F001F808BD85
:10030400034A1168034B1B780B441360704700BF0A
:100314003800002000000020034AD2F8883043F45B
:100324007003C2F88830704700ED00E0DFF834D085
:10033400FFF7F2FF0C480D490D4A002302E0D458A0
:10034400C4500433C4188C42F9D30A4A0A4C00231B
:1003540001E013600432A242FBD300F011F8FFF76E
:100364009FFF7047000002200000002010000020C2
:10037400DC080008100000203C000020FEE700001C
:1003840070B50D4D0D4C641BA4100026A64209D176
:100394000B4D0C4C00F058FA641BA4100026A64226
:1003A40005D170BD55F8043B98470136EEE755F882
:1003B400043B98470136F2E7D4080008D408000843
:1003C400D4080008D8080008436901EA030221EAB6
:1003D400030141EA0241816170472DE9F04105685A
:1003E400C46800264FF0030E43FA06F7FF070DD545
:1003F40077000EFA07FC01FA07F825EA0C0524EA4F
:100404000C0402FA07F748EA05053C430136102EAE
:10041400EAD10560C460BDE8F081430903F180437B
:1004240003F50E3300F01F001968012202FA00F0F0
:10043400084318607047000006282BD8DFE800F056
:10044400041E240A10161A00134BD3F80008C0F334
:1004540040607047104BD3F80008C0F34040704729
:100464000D4BD3F80008C0F3400070470A4BD3F893
:100474007008F8E7084BD3F87408F4E7064BD3F890
:100484000008C0F340707047034BD3F80008C0F372
:10049400C0607047002070470030024008B5024633
:1004A4001046FFF7C9FF0028FAD008BD06280CD86B
:1004B400DFE800F004282E0C12182000174AD2F8A6
:1004C400003843F08073C2F800387047134AD2F8FA
:1004D400003843F48033F6E7104AD2F8003843F08A
:1004E4000103F0E70D4AD2F8703843F00103C2F873
:1004F40070387047094AD2F8743843F00103C2F8DF
:1005040074387047054AD2F8003843F08053DAE76C
:10051400024AD2F8003843F08063D4E70030024046
:1005240006280CD8DFE800F004282E0C121820004E
:10053400174AD2F8003823F08073C2F800387047A5
:10054400134AD2F8003823F48033F6E7104AD2F87D
:10055400003823F00103F0E70D4AD2F8703823F095
:100564000103C2F870387047094AD2F8743823F08E
:100574000103C2F874387047054AD2F8003823F0F2
:100584008053DAE7024AD2F8003823F08063D4E7D4
:1005940000300240044AD2F8083823F00303184319
:1005A400C2F80808704700BF00300240044AD2F87D
:1005B400083823F4604343EA4030C2F8080870471F
:1005C40000300240044AD2F8083823F4E05343EAE6
:1005D4008020C2F80808704700300240044AD2F86C
:1005E400083823F0F00343EA0010C2F80808704703
:1005F4000030024010B547F6C07404EA811100F0DF
:100604003F001B0603F0706301431943029B540827
:10061400022B04F1FF344FEA044438BF022304F4EC
:1006240040341B0703F0E04321431943014BC3F853
:10063400041810BD0030024010B5029C022C38BFD3
:10064400022424071B0603F0706304F0E0445208FC
:100654001C4300F03F0047F6C073013A03EA8111DE
:10066400044312040C4302F44032034B144344F495
:100674008004C3F8044810BD0030024037B5044676
:100684000420FFF713FFFFF709FF0020FFF782FFA5
:10069400E379012B04D10320FFF708FFFFF7FEFEE7
:1006A40040F61C00FFF7B9FEE07B00F0C1F8207BA8
:1006B400FFF794FF607BFFF785FFA07BFFF776FFD2
:1006C4000020FFF72DFFE379A5792279618820784E
:1006D4000095012B63792FD1FFF7AEFF0020FFF7C0
:1006E400E5FEFFF7DBFEA3685A0528D500F078F88D
:1006F400A3689B0526D500F087F8A06800F064F88D
:100704000220FFF747FF124AD2F80838C3F38103E7
:10071400022BF9D10F4B22691A600F4B62691A60E0
:100724000E4BA2691A60E379012B0ED1042003B0A9
:10073400BDE83040FFF7F4BEFFF75CFFCEE700F002
:1007440059F8D5E700F06AF8D7E703B030BD00BF29
:100754000030024004000020080000200C000020AB
:100764004FF0E02200F00400136923F00403034374
:100774001361704708B5B1FBF0F10B4B994210D8E7
:100784006FF07F43994226BFC90800200420FFF779
:10079400E7FF01394FF0E02321F07F415961012047
:1007A40008BD0020FCE700BFF7FFFF074FF0E02281
:1007B400136943F00203136170474FF0E022136999
:1007C40043F0010313617047044AD2F8003C23F05C
:1007D4000F031843C2F8000C704700BF00300240FA
:1007E400034AD2F8003C43F48063C2F8003C7047EB
:1007F40000300240034AD2F8003C23F48063C2F87C
:10080400003C704700300240034AD2F8003C43F4F5
:100814000073C2F8003C704700300240034AD2F82B
:10082400003C23F40073C2F8003C704700300240DF
:10083400044A1368800323F4404380B218431060D1
:10084400704700BF00700040F8B500BFF8BC08BC9A
:100854009E467047F8B500BFF8BC08BC9E4670477A
:100864001000500104070000020600000004000309
:1008740000BD010580DE800200BD010508006000A6
:1008840002040000030600000004000300D8B805B9
:10089400006CDC0200D8B80510005001020700000B
:1008A4000506000000050403007A030A80DE8002C6
:1008B40000BD0105100068010208000005060000E3
:1008C400000504030095BA0A40A5AE02804A5D05FE
:0408D4002D020008E9
:0408D800050200080D
:1008DC00010000000024F4000024F4000024F400C3
:0400000508000331BB
:00000001FF
